:020000041A00E0
:10000000B8B400206103001A6903001A6B03001AD8
:100010006D03001A6F03001A7103001AC636FF43FE
:100020007B03001A7B03001A7B03001AA102001A4B
:100030007503001A7B03001AFD02001A0135001A2D
:100040007D03001A7D03001A7D03001A7B03001A4A
:100050007D03001A7D03001A7D03001A7D03001A38
:100060007D03001A7D03001A7D03001A7D03001A28
:100070007D03001A7D03001A7D03001A7D03001A18
:100080007D03001A7D03001A7D03001A7D03001A08
:100090007D03001A7D03001AED34001AF734001AAC
:1000A0006535001A8135001A9D35001AB935001AD8
:1000B0007D03001A7D03001A7D03001A7D03001AD8
:1000C000E533001AEF33001AF933001A0334001A2B
:1000D0000D34001A1734001A2134001A2B34001A78
:1000E0007D03001A7D03001A7D03001A7D03001AA8
:1000F0007B03001A7D03001A7D03001A7D03001A9A
:100100007B03001A7D03001A7D03001A7D03001A89
:100110007D03001A00F002F800F0B2F80AA090E89F
:10012000000C82448344AAF10107DA4501D100F0B2
:10013000A7F8AFF2090EBAE80F0013F0010F18BFCD
:10014000FB1A43F001031847FC6C00001C6D000013
:100150000A444FF0000C10F8013B13F0070408BFED
:1001600010F8014B1D1108BF10F8015B641E05D08B
:1001700010F8016B641E01F8016BF9D113F0080F40
:100180001EBF10F8014BAD1C0C1B09D16D1E58BFD2
:1001900001F801CBFAD505E014F8016B01F8016B09
:1001A0006D1EF9D59142D6D370470000002300247C
:1001B00000250026103A28BF78C1FBD8520728BF77
:1001C00030C148BF0B6070476E2900F0D1827029A2
:1001D00000F01B84662905F04284652905F03F8400
:1001E000672905F03C84612905F03B8403681B0AFC
:1001F00028BF41F08001692900F07E82642900F067
:100200007B82752900F078826F2900F0A883782915
:1002100000F0E783E92900F04383E42900F04083FC
:10022000F52900F03D83EF2900F0A583F82900F0BF
:10023000E6830368DB0928BF41F08001632901F0F0
:100240001B81732901F02081E32901F02B81F3291F
:1002500001F03081002070471FB505F0FBFB01F075
:100260007BF904000020002105F0DEFB401C6060EB
:100270000020002105F0C2FBE0601FBD10B510BDDD
:1002800001F03CF91146FFF7E7FF03F0CEFC01F067
:1002900019FA03B4FFF7F2FF03BC03F0C8F900003A
:1002A0002C4B19680868B0E8F04F80F30988BFF359
:1002B0006F8F4FF0000080F311887047000000003E
:1002C00008480068006880F308884FF0000080F359
:1002D000148862B661B6BFF34F8FBFF36F8F00DF34
:1002E00000BF00BF08ED00E0DFF80C00016841F43A
:1002F00070010160704700BF88ED00E0EFF30980F6
:10030000BFF36F8F134B1A681EF0100F08BF20ED5C
:10031000108A20E9F04F106009B44FF0280080F3F4
:100320001188BFF34F8FBFF36F8F04F023FE4FF0A0
:10033000000080F3118809BC19680868B0E8F04F24
:100340001EF0100F08BFB0EC108A80F30988BFF3CD
:100350006F8F7047E4030020EFF3058070470000C3
:100360000A4880470A480047FEE7FEE7FEE7FEE747
:10037000FEE7FEE7FEE7FEE7FEE7FEE7FEE700003A
:1003800004480549034A054B704700004935001AE7
:100390001501001AB8B10020B8B40020B8B100208F
:1003A00053EA020C00F069802DE9F04B4FF0000693
:1003B000002B1FBFB3FA83F503FA05F424FA05F600
:1003C0005E4012BF1643B2FA82F502FA05F4C5F197
:1003D00020051EBF22FA05FC44EA0C04203556EA2B
:1003E000044C4FEA144418BF641C4FF000084FF04F
:1003F0000009904271EB030C39D3002919BFB1FAFF
:1004000081F701FA07F6B0FA80F700FA07F6C7F1AC
:1004100020071EBF20FA07FC46EA0C062037B6FB71
:10042000F4FCA7EB0507103F07F01F0BCBF12006EC
:100430000CFA0BFB2CFA06F644BFB3460026202F1D
:10044000A4BF5E464FF0000B5BEA060C08BF4FF0FE
:10045000010B19EB0B09ABFB027C48EB0608C01B38
:1004600006FB02CC0BFB03CC71EB0C01C1E70B4686
:10047000024641464846BDE8F08B13B54FF00000F8
:100480004FF00001AFF30080BDE81C407047000052
:100490007CB51D4616460C00009001D02044401E3D
:1004A000074B7B442A4669460190304600F079F9B3
:1004B00005461CB10020694600F086F928467CBD3F
:1004C0002D03000010B5431C02E010F8011B71B1B0
:1004D0008107FAD14FF0013202C88C1A8C4314EA1A
:1004E000C211F9D0C01A0A0603D0C01E10BDC01A2E
:1004F00010BD0A0401D0801E10BD0902FCD0401EB0
:1005000010BD032A40F2308010F0030C00F015807B
:1005100011F8013BBCF1020F624498BF11F801CB06
:1005200000F8013B38BF11F8013BA2F1040298BF6B
:1005300000F801CB38BF00F8013B11F0030300F0D5
:100540003383083AC0F0088051F8043B083A51F868
:1005500004CBA0E80810F5E7121D5CBF51F8043B7E
:1005600040F8043BAFF30080D20724BF11F8013BF1
:1005700011F801CB48BF11F8012B24BF00F8013B53
:1005800000F801CB48BF00F8012B704702F0FF03D1
:1005900043EA032242EA024200F002B84FF00002AE
:1005A0000429C0F0128010F0030C00F01B80CCF185
:1005B000040CBCF1020F18BF00F8012BA8BF20F8F3
:1005C000022BA1EB0C0100F00DB85FEAC17C24BF47
:1005D00000F8012B00F8012B48BF00F8012B7047F1
:1005E0004FF0000200B5134694469646203922BFCC
:1005F000A0E80C50A0E80C50B1F12001BFF4F7AF17
:10060000090728BFA0E80C5048BF0CC05DF804EBF8
:10061000890028BF40F8042B08BF704748BF20F866
:10062000022B11F0804F18BF00F8012B7047704764
:100630007047704770B5044685690068C10601D5EA
:10064000302600E02026C00707D070BDD4E9012184
:1006500030469047206A401C20626D1EF6D570BD62
:1006600070B5044685690078C00707D170BDD4E92C
:10067000012120209047206A401C20626D1EF6D583
:1006800070BD09684A0501D540B27047C905FCD55F
:1006900000B2704709684A0501D5C0B27047C90564
:1006A000FCD580B2704770B50C460546012A05D0CE
:1006B0002878800600D5EA69002302E0012305E0DE
:1006C0005B1C934202D2E05C0028F9D1A869E618CD
:1006D000C01AA861286A184428622846FFF7AAFFB2
:1006E00004E0D5E9012114F8010B9047B442F8D396
:1006F0002846FFF7B5FF70BD2DE9F04106460024FE
:1007000010687529314616A510D0FFF7BAFF0028EA
:1007100002DA404213A507E031688A0701D512A525
:1007200002E0490704D511A5012401E0FFF7B2FF5B
:1007300000210A2206F1240709E0B0FBF2FCB0FB1D
:10074000F2F302FB1C00303078541846491C002894
:10075000F3D123462A463046BDE8F04100F09BBA6B
:10076000000000002D0000002B0000002000000011
:1007700011680268006A530501D508700AE0D305C4
:1007800001D5088006E0130603D5C217C1E90002AF
:1007900000E008600120704701694A1C0261087886
:1007A000704700B58FB0CDE90131002105910549B1
:1007B0007944CDE903101146684600F031F90FB0D5
:1007C00000BD0000E5FFFFFF0A6802F8010B0A60A8
:1007D0007047D1E900239A4202D2531C0B6010707B
:1007E000704700002DE9FF5F15468A460446DFF892
:1007F000AC80F8440027D8E900103E46CDE900104F
:1008000010E03AF816106A4602A800F057FE411CA4
:1008100007D02178890603D5E269391891420DD8AD
:100820000744761C2078800602D5E069B84205DDD1
:10083000AE42E6DB3AF816000028E2D1A069C01B00
:10084000A0612046FFF7F6FED8E90010CDE90010C0
:10085000002017E03AF818106A4602A800F02EFEB1
:10086000B0F1FF3F81460BD000250DF1080B05E0EC
:10087000D4E901211BF8050090476D1C4D45F7D3C5
:1008800008F10100B0428046E4DB206A384420626F
:100890002046FFF7E5FEBDE8FF9F0000026500006F
:1008A0002DE9F0418046D21D22F007020025D2E951
:1008B0000002F52915A614D0011E72F1000106DA16
:1008C0000023D0EB030063EB020211A608E0D8F886
:1008D00000108B0701D50FA602E0490701D50EA62F
:1008E00001251146002408F1240704E000F08EF9E8
:1008F00030323A55641C50EA0102F7D12B46324699
:1009000021464046BDE8F04100F0C5B900000000B6
:100910002D0000002B0000002000000030B400215A
:1009200000F1240408E002F00705D208303542EA5D
:100930004372DB086554491C52EA0305F3D104688D
:10094000002310A2250707D5A40600D421B1C4694D
:1009500001230DA2641EC46130BC00F09CB910B527
:10096000044621461068FFF795FE02462046BDE882
:1009700010400023D2E7D21D22F00701D1E9002365
:10098000CCE700000000000030000000F0B40D468D
:100990000188090502D5214C7C4402E01F4C7C44AF
:1009A0000E34002100F1240608E002F00F071209BE
:1009B000E75D42EA03721B097754491C52EA0307B8
:1009C000F3D102780023120704D5702D06D009B1A7
:1009D000022311342246F0BC00F05DB9012310342B
:1009E000F8E770B504460D4621461068FFF752FE41
:1009F000024629462046BDE870400023C6E7D21DC6
:100A000022F00703D3E90023C0E70368126843F02C
:100A1000200303600823C3610023B7E76463000079
:100A20002DE9F05F894604464FF0000ADFF874B103
:100A3000FB44C0F820A02046E1688847002874D015
:100A4000252806D0D4E901219047206A401C206265
:100A5000F1E700265F462046E168884720280546E2
:100A600007DB312D05D2781910F8200C08B10643A8
:100A7000F1E7B00701D526F00406C4F81CA0002752
:100A8000C4F818A02A2D09D0284602F0C9FD38B3B1
:100A900004EB8708303DC8F8185019E059F8041BDA
:100AA000204604EB87029161E1688847012F0546E3
:100AB00018D1E069002820DA26F020061DE0D8F8D9
:100AC000180000EB800005EB40003038C8F8180033
:100AD0002046E1688847054602F0A2FD0028EED1D5
:100AE000012F0AD02E2D08D12046E16888477F1CAF
:100AF0000546022F46F02006C4DBA069002803DA71
:100B0000404246F00106A061F00701D026F0100631
:100B10006C2D0BD0682D09D04C2D39D06A2D35D0D5
:100B2000742D35D07A2D33D016E038E0E1682F46A9
:100B300020468847B842054609D16C2F26D04FF48D
:100B40008060E168064320468847054604E06C2F34
:100B50001AD04FF4807006430DB3A5F14100192857
:100B600002D8203546F400664A46294620462660CB
:100B70004E46FFF729FB80B101280BD0F61D26F069
:100B8000070000F1080956E74020E4E78020D8E795
:100B90000020D6E706F104094DE7284652E7206A0F
:100BA000BDE8F09FF462000010B5203AC0F00B8061
:100BB000B1E81850203AA0E81850B1E81850A0E861
:100BC0001850BFF4F5AF5FEA027C24BFB1E81850BB
:100BD000A0E8185044BF18C918C0BDE810405FEA2B
:100BE000827C24BF51F8043B40F8043B08BF7047A7
:100BF000D20728BF31F8023B48BF11F8012B28BFAC
:100C000020F8023B48BF00F8012B704730B5B0F127
:100C10000A024FEA900E71F100034EEA817EB0EBBA
:100C20000E0061EB91014FEA101E4EEA017E10EBBF
:100C30000E0041EB11114FEA102E4EEA016E10EB3F
:100C40000E0041EB11214FEA104E4EEA014E10EB1F
:100C50000E0041EB1141401841F100014FEAD00074
:100C600040EA41704FEAD10110EB80054FEA810460
:100C700044EA907444EB01046D1944EB0404521BE4
:100C8000A3414FF0000348BF0A3200D530BD401CDD
:100C900041F1000130BD2DE9F0470D4699469246DD
:100CA000044600F124080168880604D5E06921F0B3
:100CB0001001216000E00120A84201DD471B00E097
:100CC0000027A1697A1902EB0900081AA0612078AF
:100CD000C00602D42046FFF7ADFC002608E0D4E9A8
:100CE00001211AF806009047206A401C761C2062F9
:100CF0004E45F4DB2078C0060AD52046FFF79AFC63
:100D000006E0D4E9012130209047206A401C20628F
:100D1000381EA7F10107F4DC07E0D4E9012118F837
:100D200005009047206A401C2062281EA5F101059D
:100D3000F3DC2046FFF794FC2078000602D5022061
:100D4000BDE8F0870120FBE770472DE9FF4F0C4617
:100D50001E464FF0FF378BB0D2E90001DDF860800E
:100D60000A908A46C1F30A5505B93D460021084656
:100D70004FF00000BAF1000F00F4400005DA00EB7C
:100D800080004FF4400101EA50004FEA9059B9F158
:100D9000010F00DDB9460A9850EA4A000ED044F629
:100DA0001050A5F2FF3545432F14B8F1000F1ED0A7
:100DB0007542291E1EDDC9F100021CE0B8F1010FC9
:100DC0004FF0000001D0302103E0F24305E0215450
:100DD000401CB042FBDB30460022002121540B991D
:100DE000C1F80880C1E900200FB0BDE8F08FBD1B3D
:100DF0006D1CDEE74A4600DA694206A800F0F0FB07
:100E000006AB93E8070003AB83E8070050460A9956
:100E100000F0A6FC8DE80700A0F500501F380090F8
:100E20000398002D0ADD42F21F014A4608440023C0
:100E300003A90390684600F00FFF09E0A0F50050F9
:100E40004A461F38002303A90390684600F019FFA3
:100E50008DE807000004000C03D04FF0FF3041087C
:100E600000E01046B8F1000F03D0002200921546B2
:100E70001EE0751E05D4FFF7C9FE303262556D1EA7
:100E8000F9D5B3460122084302D000227F1C04E0BA
:100E90002078302801D100227F1E002A099784D0B3
:100EA0001DE0112D07DAFFF7B1FE303262556D1CDF
:100EB00050EA0102F5D1084302D00098C8B10EE013
:100EC0000021681E05E0235C625C63542254401ECE
:100ED000491C8142F7DBAB46A81B401E099000204D
:100EE00004F80B000B98099AC0F80880C0E9002BA1
:100EF0007AE711264FF0000857E72DE9F04F8846B2
:100F00000446D21D22F0070191B0D1E90001CDE9DC
:100F10000A0102F05FFB02460B98C00F01D02D20A2
:100F200007E02068810701D52B2002E0202101EA9B
:100F3000C000032A099001D0072A05DB0346414679
:100F4000204600F00DFB0BE12078800601D5E0691A
:100F500000E00620B8F1650F814606D0B8F1660FB3
:100F600018D0B8F1670F70D131E00020B9F1110F3E
:100F7000009001DB112301E009F101030AAA01A994
:100F80000CA8FFF7E2FEDDE90C70002609F101056F
:100F9000834647E001204B4600904FF000470AAAE5
:100FA00001A90CA8FFF7D1FEDDE90DB00C995D4653
:100FB000002610B909F101000D18B9EB050003D4A2
:100FC000C0F1FF3609F10105A5EB09002BE0B9F1ED
:100FD000010F01DA4FF001090020B9F1110F009063
:100FE000484601DD112300E003460AAA01A90CA826
:100FF000FFF7ABFEDDE90C704D46002683462078F6
:1010000000070AD4AB4500DA5D4601A8012D04DDD6
:10101000411911F8011C302907D04F4502DA17F1A8
:10102000040F04DA012082460FE06D1EEEE7002F68
:1010300002DCED1B3E4403E0781CA84200DD7D1C71
:10104000B81B00F1010A4FF000472078000703D4D5
:10105000AA4501DB4FF0FF3A0021B7F1004F0DF137
:1010600043088DF8431024D002202B23002F01DAEF
:101070007F422D230A21021EA0F1010000DC5FB196
:1010800097FBF1FC97FBF1F201FB1C7C17460CF17E
:10109000300C08F801CDEEE7A8F1010003702188BB
:1010A000090501D5452100E06521A0F1010800F8FE
:1010B000011C09980FA9A1EB0807FF1D00B1012031
:1010C000411901EBEA70A1693844081A401EA06179
:1010D0002078C00602D42046FFF7ACFA099828B160
:1010E000D4E901219047206A401C20622078C00684
:1010F00022D52046FFF79EFA1EE0002E04DBB34502
:1011000002DD01A8805D00E03020D4E90121904794
:10111000206A401C2062761CAAF101005FEA000AE6
:101120000AD100F019FAC0680168405CD4E90121D5
:101130009047206A401C2062281EA5F10105DCDCD6
:1011400007E0D4E9012118F8010B9047206A401C00
:101150002062381EA7F10107F3DC2046FFF780FA72
:10116000032011B041E600002DE9F04F04460D4682
:10117000D21D22F0070089B0D0E9009748463946D1
:1011800002F028FA0246F80F01D02D2307E020686C
:10119000810701D52B2302E0202101EAC0038DF84D
:1011A00020300BB1012000E00020032A824601D04C
:1011B000072A04DB2946204600F0D2F93FE12078D7
:1011C000800601D40D2500E0E569C7F30A560D2D10
:1011D00049DA00214FEA175B08464FF00000002F64
:1011E00000F4400007DA00EB80004FF4400100EB10
:1011F000D07001EA60008115012901DD4FF0FF3157
:1012000000224FEA850CBCF1180F06D31346ACF14F
:1012100018004FF08052C24003E04FF4801323FACD
:101220000CF30CF10C0CBCF1200F04D3ACF1200C2E
:1012300009FA0CF001E007FA0CF000294FF0004821
:1012400001DD18B90FE00ED140450CD319EB0209AE
:101250005F4121B9404502D19F4329EA0209BBEB16
:10126000175F00D0761C2088000502D57B487844A3
:1012700002E07A487844193808AA302302F80A3084
:10128000037C0AF10101002E0AF1020A53546A4656
:1012900002DC4FF0300101E04FF031014FF0010866
:1012A0008DF8001002D0A6F2FF3603E059EA47019C
:1012B00000D06B4E002D02DC2178090704D54FF0D9
:1012C00002082E218DF80110C44600210BE0C7F35F
:1012D00003433F01C35C491C6D1E02F80830052919
:1012E00008F1010801DA002DF1DC00210CE000EB2F
:1012F0001973491C1B786D1E082902F808304FEA43
:10130000091908F1010801DA002DF0DC21688B06CB
:1013100002D516E0A8F10108E04505DD02EB08035F
:1013200013F8013C302BF5D0B8F1000F09DD02EBCA
:10133000080313F8013C2E2B03D1090701D4A8F1AF
:101340000108002D05DD3E2102F808106D1E08F190
:101350000108407C002E02F8080008F1010804DAB8
:101360002D20764202F8080002E02B2002F8080047
:101370000A214FF47A70864208F101080BDB96FBD4
:10138000F0F3303302F8083096FBF0F308F101086F
:1013900000FB136601E0642E0CDB642096FBF0F387
:1013A000303302F8083096FBF0F308F1010800FB37
:1013B000136601E00A2E06DB96FBF1F0303002F8EE
:1013C000080008F1010896FBF1F001FB10603030D5
:1013D00002F80800A16908F1010808EB050202EB18
:1013E0000A00081AA0612078C00602D42046FFF740
:1013F00021F9216A08AE01EB0A00206204E0D4E979
:10140000012116F8010B9047BAF1010AF7D22078B2
:10141000C00602D52046FFF70DF96E4609E016F822
:10142000010B3E280FD0D4E901219047206A401CCF
:101430002062B8F10108F2D22046FFF711F909B095
:101440000320BDE8F08F206A2844206203E0D4E93D
:101450000121302090476D1EEBD3F8E7DA5A0000E7
:1014600002FCFFFF10B5436913B1AFF3008001E048
:10147000FFF719F9012010BD127800F124010A705C
:1014800000224A700122EDE711684FF0FF32E9E7D0
:1014900010B5436913B1AFF3008001E0FFF7A2F983
:1014A000012010BD128800F1240182840022C28430
:1014B0000122EDE711684FF0FF32E9E770B51646FB
:1014C0000C46054600F040F8036893F80101012836
:1014D00006D0FF2C0FD8185D68B101202C7070BDAC
:1014E000D3F807013246214603F207130344284686
:1014F000BDE8704018474FF0FF3070BD754600F0F2
:10150000EBF8AE4605006946534620F007008546D5
:1015100018B020B5FEF734FFBDE820404FF00006BC
:101520004FF000074FF000084FF0000B21F00701CB
:10153000AC46ACE8C009ACE8C009ACE8C009ACE80E
:10154000C0098D467047000010B500F005F8001D79
:1015500010BD00BFD54400000048704778B100209E
:101560002DE9F0411F46044603260168072A01F4CD
:10157000006004DB08B116A505E016A503E008B17C
:1015800015A500E015A521F010002060A069C01E7F
:10159000A0610FB1401EA0612046FFF74BF84FB18C
:1015A000D4E9012138469047206A401C2062C01CC3
:1015B000206206E0206AFAE7D4E9012115F8010B60
:1015C0009047761EF8D22046FFF74AF8BDE8F08132
:1015D0004E414E006E616E00494E4600696E6600D7
:1015E0002DE9F047814616468AB0354878440DC843
:1015F0008DE80D0032487844801C03AC0DC884E8A7
:101600000D0041F69B300844372190FBF1F290FB2E
:10161000F1F5A5F1800501FB12041B3C02D56442E3
:10162000012000E00020DFF898A080460027FA445F
:10163000AAF1BE0A0EE0E0070AD03246684607EB80
:10164000470101230AEB810100F01BFB8DE8070035
:1016500064107F1C002CEED1194F7F44AE3F19E07F
:10166000E80715D007EB04100DF1180A90E80E00FA
:101670008AE80E00C068F04201D1981908903246FD
:10168000012306A903A800F0FCFA03AB83E80700D6
:101690006D10641C002DE3D14FF001033246694602
:1016A000B8F1000F03A802D000F0D6FA01E000F074
:1016B000E8FAC9E90001C9F808200AB0BDE8F087D6
:1016C000EC57000010B50446AFF300802046BDE89B
:1016D0001040FEF7DEBD00000048704758B1002002
:1016E0004FF0013C50F8042B51F8043B9A4221D1B1
:1016F000A2EB0C03934313EACC1317D150F8042B3D
:1017000051F8043B9A4215D1A2EB0C03934313EA20
:10171000CC130BD150F8042B51F8043B9A4209D159
:10172000A2EB0C03934313EACC13DBD04FF0000081
:10173000704700BFD01A01BAB1FA81F101F0180167
:1017400022FA01F0CB40C1F12001DBB2C0B2C01AD5
:101750002CFA01F3D11A914311EAC311E6D1704773
:101760005FEA400C08BF91F0000F4FEA8C234FEA6C
:10177000C12243EA51514FEA1C5018BF00F5F04016
:101780004FEA300018BF41F000415FEA6C5C00F0A6
:101790002980BCF1FF3F08BF40F080407047130C28
:1017A00006BF12044FF0100C4FF0000C130E04BFD4
:1017B00012020CF1080C130F04BF12010CF1040CFF
:1017C000930F04BF92000CF1020CD30F04BF520020
:1017D0000CF1010C11464FF00002A0F11F00A0EB2C
:1017E0000C00704711F0004F08BF704731F0004106
:1017F0003FF4D5AF0B0C06BF09044FF0100C4FF0AF
:10180000000C0B0E04BF09020CF1080C0B0F04BFF7
:1018100009010CF1040C8B0F04BF89000CF1020CC0
:10182000CB0F04BF49000CF1010CCCF12003A0EB5D
:101830000C0022FA03F302FA0CF241EA030100F170
:101840000100704720F07F4C80EA030023F07F47BF
:10185000ACEB070303F57C5300F0004003F1FF03FA
:101860002DE980494FEA154B09B44FEA144325EAA4
:101870000B4E24EA03480FF2042606EB132749080F
:101880003E785FEA320203FB0667C7F5000707FBF5
:1018900006F64FEA54374FEAD64606F1020607FB32
:1018A000066CCCF1005C4FEA1C472CEA074C07FBA6
:1018B00006F40CFB06F504EB15464FEA961634BF0A
:1018C00000204FF000404FEAD13706FB07FC4FEAFB
:1018D0001C4C0CFB0BF7D21B03FB0CF761EB070155
:1018E0000CFB0EF7B0EB074072EB17420CFB08F74E
:1018F00034BFA2EB0742B2EB074261EB17414FEA5C
:101900000C444FEA910706FB07FC4FEA1C4C0CFB0A
:101910000BF7B0EBC74072EB573203FB0CF734BF49
:10192000A2EBC742B2EBC74261EB57310CFB0EF79B
:10193000B0EBC70072EB57720CFB08F734BFA2EB99
:10194000C702B2EBC70261EB5771039F4FEA816197
:1019500041EA921104EBCC044FEAD1374FEA82629C
:1019600006FB07FC42EA90124FEA80604FEA1C4CEB
:101970000CFB0BF7D21B03FB0CF761EB07010CFB15
:101980000EF7B0EB074072EB17420CFB08F734BFC1
:10199000A2EB0742B2EB074261EB17414FEA8C55CD
:1019A0004FEA910704EB9C2406FB07FC4FEA1C4C12
:1019B0000CFB0BF7B0EBC74072EB573203FB0CF795
:1019C00034BFA2EBC742B2EBC74261EB57310CFB0D
:1019D0000EF7B0EBC70072EB57720CFB08F734BF81
:1019E000A2EBC702B2EBC70261EB577115EB4C25B6
:1019F0004FEA816141EA92114FEA82624FEAD137A0
:101A000042EA901206FB07FC44F100044FEA8060B2
:101A10004FEA1C4C0CFB0BF7D21B03FB0CF761EBE2
:101A200007010CFB0EF7B0EB074072EB17420CFB03
:101A300008F734BFA2EB0742B2EB074261EB174154
:101A400015EB1C154FEA813141EA92414FEA82328F
:101A500042EA90424FEA80304FEA0C7644F10004AB
:101A600048EA03434EEA0B484FF0000EB2EB080C75
:101A700071EB030724BF624639464EEB0E0E4FF062
:101A8000000B0018524149414BEB0B0BB2EB080C19
:101A900071EB03077BF1000B24BF624639464EEB26
:101AA0000E0E4FF0000B0018524149414BEB0B0B4F
:101AB000B2EB080C71EB03077BF1000B24BF62460D
:101AC00039464EEB0E0E51EA020718BF46F00106EA
:101AD00016EB0E7655F1000254F1000103D5BDE876
:101AE0008901BDE80088BDE88901BDE80048B61954
:101AF000524141EB0101A3F10103704780807F7ED9
:101B00007D7C7B7A79787776767574737271717073
:101B10006F6E6E6D6C6C6B6A6A6968686766666525
:101B20006464636362616160605F5F5E5E5D5D5CB3
:101B30005C5B5B5A5A595958585757565655555524
:101B40005454535352525251515050504F4F4F4E84
:101B50004E4D4D4D4C4C4C4B4B4B4A4A4A494949D2
:101B60004848484747474746464645454544444414
:101B7000444343434342424242414141002B9C463D
:101B800030D477002BD01CB54FEA370703B44FF0A1
:101B900010004FF01001BAF1000F06D0BCF1000F99
:101BA000DCBF40F0080040F008014FF000000FBC1F
:101BB000BDE810400BF1010BBBF1010F08BF5FEA5C
:101BC000170722BF12F1010211F101014FF000418C
:101BD00043F1000300F0004043EA00007047F9D3EE
:101BE0005708D0E746EA064613F1400F4FEA16467B
:101BF0001FDD13F1200FDFBF16430A4600212033FB
:101C00005B42BED0C3F1200746EA064602FA07F758
:101C10004FEA164646EA0706C3F1200722FA03F206
:101C200001FA07F721FA03F14FF0000342EA070235
:101C3000A7E746EA020646EA06464FEA164646EA9D
:101C40000106BCBF46EA0646360C4FF000034FF0D3
:101C500000024FF0000194E72DE9804C9A4693462C
:101C600070B491E8380007C831EA400C48BF34EA44
:101C7000430C03D5FFF7E6FDFFF780FFF0BCBDE89E
:101C8000008C2DE9804C9A46934670B491E8380058
:101C900007C810F0804F08BF13F0804F03D100F049
:101CA00005F8FFF76BFFF0BCBDE8008C20F07F4724
:101CB00080EA030023F07F4C07EB0C03A3F57C5371
:101CC00000F00040A3F1FE0392F0000F00F0B3809B
:101CD00095F0000F00F077802DE901494FEA11409F
:101CE0004FEA144621EA004800FB06FC24EA0647B6
:101CF00008FB06F607FB08F800FB07F718EB064899
:101D00004CEB164C4FEA124B18EB07484FEA1546BE
:101D10004CEB174022EA0B4E0BFB06FC25EA06476C
:101D20000EFB06F607FB0EFE0BFB07F71EEB064E3F
:101D30004CEB164C4FF000061EEB074E4CEB174BCE
:101D400018EB0B0840F1000018EB0E0B58EB0008E5
:101D500040F100008F1A4FF000013CBFC943661BE1
:101D600014BFB5EB040C00213CBFC943F61B4FEA7E
:101D700017444EEA8E0E27EA04454FEA1C4704FB3F
:101D800007622CEA074C05FB07F70CFB05F604FB82
:101D90000CFC16EB074642EB174216EB0C4642EBE7
:101DA0001C421BEB060658EB0202414146EA9E0626
:101DB00001D5BDE80189B619524141EB0101A3F1FA
:101DC0000103BDE801894FEA14454FEA114724EAAF
:101DD000054621EA074C05FB07F406FB07F70CFB59
:101DE00006F105FB0CFC11EB074144EB17444FEAED
:101DF000124711EB0C4144EB1C4422EA074C05FB53
:101E000007F206FB07F70CFB06F605FB0CFC16EBCE
:101E1000074642EB174216EB0C4642EB1C456A188C
:101E200054F1000148BF7047B619524141EB01011E
:101E3000A3F10103704795F0000F37D04FEA11422C
:101E40004FEA144721EA024624EA074C02FB07F155
:101E500006FB07F70CFB06F402FB0CFC14EB074433
:101E600041EB17414FEA154714EB0C4441EB1C4181
:101E700025EA074C02FB07F506FB07F70CFB06F605
:101E800002FB0CFC16EB074645EB174516EB0C4620
:101E900045EB1C42121951F1000148BF7047B619B9
:101EA000524141EB0101A3F1010370474FEA144590
:101EB0004FEA114724EA054621EA074C05FB07F1E2
:101EC00006FB07F70CFB06F24FF0000605FB0CFCC7
:101ED00012EB074241EB174112EB0C4251EB1C4154
:101EE00048BF7047921841EB0101A3F1010370470D
:101EF0002DE9F04105464FF4803440F6B83601270D
:101F000072B6002301221146042001F017F815B122
:101F1000022D36D105E000F0A5FE00F0ABFE012752
:101F200031E000F0C5FE002400E0641CB442FCDB9C
:101F3000002301220621042001F000F81E4B1A465E
:101F40001E49062001F016F800BF00F0EFFF002840
:101F5000FBD0002301220921042000F0EFFF002420
:101F600000E0641CB442FCDB154B1A461349062002
:101F700001F000F800BF00F0D9FF0028FBD00927CE
:101F800001E0012700BF00BF00240EE00D4901EB76
:101F90008401CB780B4901EB84018A78094911F857
:101FA0002400394600F0CAFF641C0A2CEED301F06D
:101FB000C1FA62B6BDE8F08100E1F505001BB7008B
:101FC00000CB280C705A001A10B50024AE21084826
:101FD00000F014F800BF08E00020064941F8240092
:101FE000054941F82400601CC4B2082CF4DB10BD84
:101FF0007A5D001AB8100020D81000202DE9F041B9
:1020000005460E460024002004464CE035F83470A6
:10201000DFF89CC01CF8270035F834700CEB8707FC
:10202000797805EBC4077A8805EBC4073B7942EA67
:102030000307DFF880C00CEBC01C4CF8217000BF18
:1020400000BF05EBC4004079022829D035F83400E0
:10205000174901EB80008078FF2821D005EBC400F0
:10206000407908B1012000E00020034635F8340033
:102070000F4F07EB8000C27835F8340007EB800083
:1020800081780D4801F00EF805EBC4004079012875
:1020900006D105EBC402917915F8340000F00EF872
:1020A000601C80B20446B442B0DBBDE8F0810000A1
:1020B000985A001A0060084000400F4070B504466E
:1020C0000D4600BFAE2C05DBBA2316A220A10020CE
:1020D00002F03EFC00BFAE2C22DA85B12148224B33
:1020E00003EB84039978204B03EB8403DA78012314
:1020F000934000F5085646F8213000BF10E0194A19
:10210000194B03EB84039878174B03EB8403D978BE
:1021100001238B4002F50A5646F8203000BF00BF6D
:1021200070BD00002E2E5C2E2E5C7372635C626F9D
:102130006F74636F64655C6472765C626F61726415
:102140005C426F6172645F4770696F2E63000000CC
:102150000D0A4153534552543A2025733A202564C1
:102160000D0A000000400F40985A001A30B503468F
:1021700001F07F44002018809870521EB2F5002FA5
:1021800004D2B4F1D05F01D118700AE0B2F5002F8B
:1021900005D2B4F1D85F02D10120187001E000200F
:1021A00030BD21F07F41B1F5803F13D2C1F34730FC
:1021B00058708818B0F5803F04D28818C0F34730B3
:1021C000987014E08818A0F58032082000EB1240C7
:1021D00098700CE0A1F58030082505EB1040587090
:1021E0008818A0F58032082000EB1240987001207A
:1021F000D6E70000F8B504460D46002616A10120DA
:1022000002F0A6FB2B46224615A1012002F0A0FBFE
:1022100002F044FC2A4621466846FFF7A7FF012842
:1022200012D19DF800209DF802109DF8010000F0E9
:1022300079FF064646B99DF800209DF802109DF8EA
:10224000010000F057FF064602F03AFC0EB90120EB
:10225000F8BD0020FCE7000045726173650D0A00BF
:1022600041646472657373203D20307825303258A4
:102270002C2053697A653D25640D0A0030B589B07C
:102280003120049004AC6D4604482946026820467B
:10229000904700BF012009B030BD00000001401090
:1022A000F8B504460D461646002702F0F7FB2A460D
:1022B00021466846FFF75AFF01280FD19DF80020FC
:1022C0009DF802109DF8010000F02CFF07462FB981
:1022D0002A463146204600F0F3FE074602F0F0FBA6
:1022E0000FB90120F8BD0020FCE710B5FFF76CFE28
:1022F000002000F053FB012000F050FB022000F012
:102300004DFB032000F04AFB002000F017F90120EC
:1023100000F014F910BD00001CB504460020019027
:10232000C4EBC401814A02EB81014868012100F03D
:102330002FFF012813D107E0C4EBC4017B4A02EB55
:102340008101486800F056FFC4EBC401774A02EBF4
:1023500081014868042100F023FF0028ECD120E02F
:10236000C4EBC400714901EB8000407A072818DCF7
:1023700000200090C4EBC4016C4A02EB8101486864
:1023800000F038FFC0B20090694850F8240038B11E
:10239000674951F82400002301AA694602F044FF6E
:1023A00000BFC4EBC401614A02EB8101486804210B
:1023B00000F0F6FE0028D3D15E4951F8240002F067
:1023C00018FB00287DD05B4850F8240000287ED000
:1023D0006FE0C4EBC400554901EB8000407A072848
:1023E00007DD544951F8240001AA694602F0EAFFCA
:1023F00013E0FF2000904F4951F8240001AA6946DC
:1024000002F0E0FFC4EBC401484A02EB81014868D6
:102410009DF8001000F0F2FE00BFC4EBC401434A77
:1024200002EB81014868012100F0B2FE012813D1BE
:1024300007E0C4EBC4013D4A02EB8101486800F0AB
:10244000D9FEC4EBC401394A02EB8101486804217A
:1024500000F0A6FE0028ECD120E0C4EBC400334914
:1024600001EB8000407A072818DC00200090C4EBC4
:10247000C4012E4A02EB8101486800F0BBFEC0B2E5
:1024800000902B4850F8240038B1294951F8240015
:10249000002301AA694602F0C7FE00BFC4EBC401D5
:1024A000224A02EB81014868042100F079FE0028ED
:1024B000D3D1C4EBC4011D4A02EB8101486802215B
:1024C00000E004E000F06CFE012882D019E0C4EBCB
:1024D000C401164A02EB81014868FF2100F08EFE1C
:1024E000C4EBC400114901EB8000007A042808D035
:1024F000C4EBC4010D4A02EB81014868082100F0D9
:102500006FFEC4EBC402094B03EB82020321506847
:10251000016200BF019838B14FF080500649086051
:10252000BFF34F8FBFF36F8F1CBD00001000002062
:10253000500000204800002004ED00E0F8B50446FB
:10254000C4EBC401634A02EB8101486800F030FE2D
:10255000C4EBC4025F4B03EB82025068C4EBC402BD
:1025600003EB8202117A426822F004020A434260BD
:1025700000BFC4EBC4051E4606EB85056868C4EBC6
:10258000C40506EB8505697AC4EBC40506EB850531
:10259000AA7AC4EBC40506EB8505EB7A056825F03D
:1025A000FF050D4315431D43056000BFC4EBC40286
:1025B000334603EB8202D168C4EBC40203EB820210
:1025C000506800F01EFEC4EBC401324602EB8101EC
:1025D0004868416841F00201416000BF002000905E
:1025E00004EB84003C4901EB00133C4800EB8422DF
:1025F0000121880202F037FD394941F8240000200A
:10260000009004EB8400374901EB0013364800EBDF
:1026100084220121880202F026FD344941F8240079
:10262000C4EBC400314601EB8000007A042808D1D5
:10263000C4EBC401324602EB81014868072100F077
:10264000D5FDC4EBC402234B03EB820292F90000D8
:102650000121002807DA4A07150E254A00F00F036A
:102660001B1FD55403E04A07130E224A135400BF20
:10267000C4EBC401174A02EB810191F9000000F09C
:102680001F02012191401C4A430942F8231000BF58
:10269000C4EBC4010F4A02EB810191F9000000F084
:1026A0001F02012191404209920002F1E022C2F88A
:1026B000001100BFC4EBC400064A02EB8000416970
:1026C000012002F0BBFCC4EBC401024A02EB810111
:1026D0008861F8BD100000209811002038120020F9
:1026E00048000020381A0020D81A0020500000208E
:1026F00018ED00E000E400E080E200E02DE9F041A8
:1027000004460E4617464FF000080025C4EBC400EF
:102710001A4901EB8000806960B3194850F8240021
:1027200040B3C4EBC401154A02EB81018869691EFC
:1027300002F08AFE01281DD100BF0BE07919104A72
:1027400052F824004FF0FF3202F0BAFD00B903E066
:10275000681C85B2B542F1DB00BF4FF00108C4EB45
:10276000C401064A02EB810100231A468869194612
:1027700002F0CEFC4046BDE8F081000010000020D1
:1027800050000020F8B504460D4616460027C4EB5D
:10279000C4003C4901EB8000806900286FD03A48B2
:1027A00050F8240000286AD0C4EBC401354A02EB7B
:1027B00081018869791E02F047FE01285FD10DE092
:1027C000314951F8240000234FF47A72314602F067
:1027D0009FFC00B904E0761C681E85B2002DEFD185
:1027E00000BFC4EBC401274A02EB810148680721FE
:1027F00000F0F6FC1DE0C4EBC400224901EB8000B0
:10280000407A072815DCFF2000901F4951F824006A
:102810000022694602F054FD012809D1C4EBC4012D
:10282000184A02EB810148689DF8001000F0E6FCB0
:1028300000BF154951F8240002F0D2F850B1C4EBA2
:10284000C401104A02EB81014868022100F0A8FC93
:102850000128D0D00127C4EBC4010A4A02EB810150
:102860004868072100F0C2FCC4EBC401054A02EB32
:10287000810100231A468869194602F049FC38464E
:10288000F8BD0000100000204800002010B588B0FE
:1028900004463F4B0FCBCDE90623CDE904010020D0
:1028A000039004A850F82400406800F0020098B398
:1028B00035206043374901EB8000D0F8C80060B391
:1028C00006E004A951F824009DF8081000F022FD4C
:1028D00004A951F82400416901F0200060B13521BC
:1028E00061432C4A02EB810103AAD1F8C80002A976
:1028F00002F068FD0028E4D135216143254A02EB4E
:102900008101D1F8C80002F0D2FC28B104A951F825
:102910002400022100F0F6FC05E004A951F824008F
:10292000022100F0EFFC1AE004A951F8240001682C
:10293000C9B2019135206043164901EB8000D0F8FF
:10294000CC0058B135216143124A02EB81010023CA
:1029500003AAD1F8CC0001A902F066FC00BF04A9CB
:1029600051F82400416901F001000028DCD104A9DC
:1029700051F8240000F06CFC039838B14FF08050FF
:1029800005490860BFF34F8FBFF36F8F08B010BDCC
:102990004863001A5800002004ED00E030B587B00D
:1029A0000446644BD3E901211868DB68CDE90513BF
:1029B000CDE9030260A00068029060A00068019069
:1029C00001A9085D00F0CEFB00BF01A9085D00F081
:1029D000B9FB0028F9D103A951F8240000F06CFCE0
:1029E00035226243564B53F8221003AA52F82400B2
:1029F00000F092FC03AA52F8240035226243504BA7
:102A000003EB82025168C16000BF03AA52F82400A0
:102A10003522624303EB82029168816000BF00208F
:102A2000352161431D4605EB810101F12803352164
:102A3000614305EB810100904A693521614305EB53
:102A400081018869012102F00EFB352161432A468C
:102A500002EB8101C1F8C80000203521614305EB7C
:102A6000810101F178033521614305EB810100907B
:102A7000CA693521614305EB8101086A012102F031
:102A8000F2FA352161432A4602EB8101C1F8CC00FC
:102A900004EB84002B4A02EB0011012002F0CEFA75
:102AA000352161432A4602EB8101486226493520DF
:102AB000604302EB8000C0F8D010352262432B4601
:102AC00003EB8202D16803AA52F8240000F01EFC36
:102AD00003A951F824000121C16500BF02AA1057C3
:102AE0000321002807DA4A07150E184A00F00F03E1
:102AF0001B1FD55403E04A07130E154A135400BF99
:102B000002A9085700F01F0201219140114A430910
:102B100042F8231000BF02A9085700F01F0201214C
:102B200091404209920002F1E022C2F8001100BF78
:102B300007B030BD5863001A18191A1B2C2D2E2F00
:102B400058000020B83A00208D28001A18ED00E047
:102B500000E400E080E200E02DE9F04385B00446A7
:102B60000D4616461F463D4B0FCBCDE90323CDE95D
:102B700001014FF0000800200090352060433849E3
:102B800001EB8000406A002864D03520604301EBEF
:102B90008000D0F8C80000285CD04FF47A707843E9
:102BA0004FF47A71B0FBF1F9352161432C4A02EB05
:102BB0008101486A494602F047FC01284AD110E0E9
:102BC00035216143264A02EB810100231A46D1F8E0
:102BD000C800314602F09CFA00B904E0761C681E79
:102BE00085B2002DECD100BF01A951F824000221CB
:102BF00000F088FB06E001A951F824009DF80010C0
:102C000000F088FB01A951F82400416901F020007F
:102C100060B135216143124A02EB81010022D1F8F3
:102C2000C800694602F04CFB0128E4D00DB94FF012
:102C3000010801A951F82400022100F067FB3521A9
:102C40006143074A02EB810100231A46486A19468C
:102C500002F05EFA404605B0BDE8F0837863001AE2
:102C6000580000200248816941F0010181617047EC
:102C7000000005400248416C41F001014164704789
:102C8000000005400949B0F5A17F01EBC00106D362
:102C9000D1F8F00640F00100C1F8F0067047D1F815
:102CA000000140F00100C1F800017047001005402C
:102CB00008B50D494FF47A70009088698A6920F050
:102CC0000200824200D08861084A094B20F00100CE
:102CD00012689A4201D340F0040088610098411EB6
:102CE0000091FBD208BD0000000005406C5A001A9C
:102CF000002D310110B5012401B103240AB144F0C3
:102D00000404022B01D144F02004064AB0F5A17F4F
:102D100002EBC00102D3C1F8F04610BDC1F800417A
:102D200010BD0000001005401C2805D2054901EB2C
:102D30008000C06DC10701D011207047C0F304604E
:102D4000704700000000054010B5FFF7EDFFBDE83B
:102D5000104000F001B8000030B4024600201F4BC4
:102D60001F49204C112A0CD2DFE802F0090D0F1781
:102D70001F0B212426280B0B2B2D2F3133004FF452
:102D8000004030BC70471848FBE7D3F82C2102F014
:102D90000702042AF5D00846F3E7D3F82C0100F027
:102DA00007000428F7D11148EBE7114800E011486B
:102DB0000068E6E72068E4E76068E2E730BC00F01E
:102DC0004BB8002106E0012104E0022102E00321CA
:102DD00000E0042130BC104600F00EB80030044082
:102DE00040787D0130040020001BB70080F0FA021B
:102DF000685A001A6C5A001A10B50A46084600F0C4
:102E00001DF80346104600F009F804461846FFF77F
:102E1000A3FF641CB0FBF4F010BD000004A1064A3F
:102E2000095C02EB8000806C01EA900070470000B2
:102E3000030F0F0FFF00000000000540054901EBE4
:102E40008000806CC10701D011207047C0F304607E
:102E50007047000000000540F8B5144D6C6CC4F3D9
:102E60000360FFF779FF12A109680091296CC90777
:102E700013D0C4F30131C4F30742C4F30125C4F3F2
:102E8000C013491CC4F380141DF80550521C234381
:102E900005D0B0FBF1F05043F8BD0020F8BD6B0049
:102EA000B2FBF3F2B0FBF1F05043F8BD0000054077
:102EB000010204082DE9F0411A4AB0F5A17F02EBA6
:102EC000C00102D3D1F8F04601E0D1F80041E1079A
:102ED00026D01C210022144B0EE000BF33F81660F0
:102EE000864208D86D88854205D302EB420003EB89
:102EF0004000017907E0521C02EB420603EB460555
:102F00002F798F42EAD10846FFF71EFF6109490772
:102F100004D00221B0FBF1F0BDE8F0810121F9E716
:102F20000020F9E7001005407C6C001A0248006C94
:102F300000F00100704700000000054030B50B4C68
:102F400004EB8005EC6D1C280DD211290AD008482D
:102F500004400AB144F400640BB144F0010444EAB3
:102F60000160E86530BD44F00100FAE7000005406B
:102F7000FEF7FFE02DE9F047994615468846824660
:102F8000FFF7EAFE0646681C1AD0B5FBF6F44B467E
:102F900042462146304600F079F80746641C4B460D
:102FA00042462146304600F071F837B118B1E91BAE
:102FB000401B814202D9611E15E008B1214612E092
:102FC000B8FBF6F4B9FBF6F700254B46424621461E
:102FD000304600F05BF800B12546BC4201D2641CCB
:102FE000F3E72DB129465046BDE8F04700F004B89C
:102FF0000020BDE8F0870000F8B50546FA200090F3
:103000000C462846FFF7A8FE1C4F00260246796CA6
:103010003346012021F0F85141EA0561184D624321
:103020002940184D641EAA4201D30EE05B1C4000EB
:1030300000FB02FCAC45F9D3200440EA063040EA2C
:103040000320084340F0400006E00F48824211D2BE
:1030500041EA044040F0C00020F00100C7F84400FD
:10306000FFF764FF0028FBD00098411E0091FBD2BF
:103070001046F8BDFFF7FEFD0020F8BD000005403A
:103080003DCC00FF005F4C0900D012134843904232
:1030900004D30349884201D8984200D900207047E0
:1030A00000CB280C00EB8100012100F5005091407D
:1030B00002680BB10A4300E08A43026070470000D7
:1030C00000B589B033230DF1140C04938CE807008C
:1030D00007484FF47A710068B0FBF1F00890694638
:1030E00004A800F09DFD009809B0C0B200BD00002A
:1030F0002C04002000B589B034230493CDE90501E8
:1031000007484FF47A710068B0FBF1F0CDE907028F
:10311000694604A800F084FD009809B0C0B200BD63
:103120002C04002000B589B032230DF1140C049357
:103130008CE80700694604A800F072FD009809B009
:10314000C0B200BD0649420951F8221000F01F022A
:1031500001209040014201D10120704700207047BA
:10316000503105400449420901EB820100F01F0281
:1031700001209040086070470031054003498842B3
:1031800001D1A520704783207047000000500C40FB
:1031900002469069084008B1012070470020FCE712
:1031A0000246D068084008B1012070470020FCE7C3
:1031B00010B50446FFF7E2FFFFF764FD606820F0FA
:1031C00004006060206820F0FF0040F007002060ED
:1031D0002046BDE81040014900F013B8A086010068
:1031E00042690F238B431A404261704742690A4388
:1031F000426170470146886880B270478AB2826037
:10320000704770B50C460546FFF7B8FFFFF752FE52
:1032100003460021481E02220AE0481C5043B3FB2B
:10322000F0F0A04204D9491CFF2901D90021921CC9
:10323000A042F2D82846BDE87040AFF30080036892
:10324000C9B223F47F4343EA012101600261704760
:103250008168C9050CD5016A41F480710162416839
:1032600021F48071416008490A780AB901220A7084
:103270008168890507D5016A41F4007101624168DE
:1032800021F400714160704738040020094940185A
:1032900009D0B0F5805F07D0B0F5802F06D0B0F52B
:1032A000822F05D000207047012070470220704710
:1032B0000320704700F0F7BF38B50446FFF7E6FF7C
:1032C0000E4901231A4631F810001946FFF712FD86
:1032D0000720A0600020E0656060E0602062E0649C
:1032E0006065206506498C4202D12061A06900908A
:1032F0000320E0601020A06238BD0000E86C001AD6
:103300000020084042688A434260704742680A438E
:1033100042607047016070472DE9F34F81B000248F
:1033200007464FF001094FF0FF3A0094FFF7AEFF58
:103330002B4931F81000FFF7BDFD8346012500261B
:1033400022E00298AA1942434FEA0B7CACFB050825
:103350004FEA1B1101FB058100230CFB0311FDF754
:103360001FF8002801DA4042491C82450BD351B1B5
:103370000A0C08D1032900D22EB90C46A9460096A2
:103380005FEA000A02D0761CAE42DAD36D1CBAF1B5
:10339000000F01D0102DD2D304B3F86840F08000A4
:1033A000F860E1B2C4F3072039607860F86820F073
:1033B0008000F86000994FEA097001F00F0141EABE
:1033C0001060B862009A4FEA1B1009EB020100FB83
:1033D00009F06143B0FBF1F0BDE8FE8F0020FBE790
:1033E000F06C001A10B5002000F024F810BD10B5E4
:1033F000012000F01FF810BD10B5022000F01AF8EF
:1034000010BD10B5032000F015F810BD10B5042054
:1034100000F010F810BD10B5052000F00BF810BD3D
:1034200010B5062000F006F810BD10B5072000F01A
:1034300001F810BD10B5044600BF2148C069012144
:10344000A14008400121A140884201D1012000E0B3
:10345000002070B11B4850F8240018B1194951F8E8
:1034600024008047012101FA04F01549C86100BF1A
:1034700000BF00BF1248006A0121A140084001219D
:10348000A140884201D1012000E0002070B10E4827
:1034900050F8240018B10C4951F82400804701214C
:1034A00001FA04F00649086200BF00BF074901EBBA
:1034B00044014978064A505600F00CF810BD00004F
:1034C00000700840B8100020D8100020785D001A65
:1034D0003E63001A00F01F0201219140024A430995
:1034E00042F823107047000080E200E010B5002091
:1034F000FEF712FF10BD10B50120FEF70DFF10BD45
:1035000010B500BF282080F31188BFF34F8FBFF3A1
:103510006F8F00BF02F088F818B14FF08050044957
:10352000086000BF002080F3118800BF10BD0000BC
:1035300004ED00E010B56920FFF7BCFC014908600C
:1035400010BD00002C04002010B5044C044820607D
:1035500000F048FB0220FEF7CBFC10BD08ED00E0B8
:103560000000001A10B50548D0F8D00020B103487B
:10357000D0F8D0100020884710BD0000580000206F
:1035800010B50548D0F8A40120B10348D0F8A41123
:103590000120884710BD00005800002010B50548E4
:1035A000D0F8780220B10348D0F87812022088477A
:1035B00010BD00005800002010B50548D0F84C039D
:1035C00020B10348D0F84C130320884710BD0000F9
:1035D0005800002003B401984100009850EAC1202F
:1035E00018BF04204A0D18BF40F0010040F2FF72DE
:1035F000B2EB515F08BF40F00200012808BF052070
:1036000002B070470346B2F5C04F01D900207047A1
:10361000024808604FF4C040F9E70000A4500020C1
:1036200030380A2801D2012070470020704700BFBF
:1036300030BFFDE770B504460D4600260F492068EF
:10364000884203D30E492068884203D20D4920687E
:10365000486001262868B0F5002F01D9002070BD10
:103660000849286888600020C86008468368426866
:1036700005A1072001F06CF93046F0E70000081AB8
:103680000000081B3C040020496E666F3A25582054
:1036900025640A0001490968016070473C04002064
:1036A00010B504460449206808600846026803A172
:1036B000072001F04DF910BD3C04002056657273DF
:1036C0003A25640A000000000146024A086850607A
:1036D000012070474C04002070B5054600260020EC
:1036E00011494860012008700020C1F8080401F168
:1036F000080600240AE0285D30550B48D0F808047D
:10370000295D08440849C1F80804641CB4F5806FB9
:10371000F1D30548D0F80834426804A1072001F02D
:1037200017F9012070BD00004C040020443A2558D0
:103730002C2025580A0000000349D1F80814C94379
:10374000491C0160704700004C04002010B50024A3
:1037500016488368426816A1072001F0F9F813485B
:103760004068401CD0B111488068B8B1FEF786FDB2
:1037700004464FF400711248FEF73CFD04430B4A27
:1037800091685068FEF736FD0443012C03D10120F7
:103790000C49087002E000200A49087022460AA17C
:1037A000072001F0D5F8204610BD00003C040020A1
:1037B000456E61626C653A25582025640A00000058
:1037C0000080001A000000204941505F456E616290
:1037D0006C653A25640A00000EB500F06FF9B0B1CF
:1037E000FEF783FD01F0A0F800F0C4FE62B60948C0
:1037F000094900221346CDE9002102904FF40072DE
:1038000006A1094801F0E6FE01F0F8FA01E000F037
:10381000F3F80EBD58080020B80800204961702058
:103820005461736B00000000813A001A7047000079
:103830002DE9F041044602267702354D2068401CF0
:1038400010B12046FFF740FF3249206888421ED160
:10385000FF224FF400712846FCF798FE4FF40077E2
:1038600005F5007500202A490839C1F808040AE066
:1038700015F8011B26480838D0F8080408442449E4
:103880000839C1F80804381EA7F10107F0D1224910
:1038900020680968884207D11D480838D0F8080414
:1038A0001E490968884211D01B49206808601848E1
:1038B0000838D0F80804194908601948C068144944
:1038C0000839D1F8081408441549C860154800782B
:1038D00001280DD10E4808380078012808D10C497C
:1038E000083948680A4A4FF48061FEF7D9FC064659
:1038F00007480838D0F80804C043431C0448083877
:10390000426809A1072001F023F83046BDE8F081A4
:10391000540400200080001A0C0000200800002041
:103920003C04002000000020503A25582C20255847
:103930000A00000070B5ADF5007D04460E46002576
:10394000FF224FF400716846FCF720FE20492068F2
:103950000860204848600846806888600846C0685B
:10396000C043401CC860084602681BA1072000F045
:10397000EFFF1748426818A1072000F0E9FF14483C
:10398000826815A1072000F0E3FF1148C26813A167
:10399000072000F0DDFF0E4B186859689A68DB6855
:1039A0008DE80F006A464FF400710E48FEF778FC70
:1039B000012803D100200C49087001252A460BA1DB
:1039C000072000F0C5FF28460DF5007D70BD000002
:1039D0003C0400200082001A255820002558200AA7
:1039E000000000000080001A00000020446F6E6597
:1039F0003A25640A0000000010B572B61448FF2290
:103A00002021FCF7C3FD1348FF222021FCF7BEFD57
:103A100000204FF0E02108610F48006840F000707E
:103A20000D4908600D49086880F3088800BF002030
:103A300080F3148800BF0A4800680A49884202D10E
:103A40000020074908600548001D0468A04710BD14
:103A500080E100E080E200E004ED00E00082001A76
:103A6000F07F001078563412024908700249034A68
:103A7000116070470100002021436587F07F00102E
:103A800000200B4908607B200A4908600FE00A48C3
:103A9000007801280BD100F011F828B9C82000F0F7
:103AA000A9FCFFF7A9FF02E0002003490870EEE738
:103AB000080000200C000020010000202DE9F0414A
:103AC0002A4806680025002700240020284908709D
:103AD0002849087028480068284908602648406836
:103AE00048602548806888602348C068C860FFF740
:103AF0009DFE23A1072000F02BFF20480068B0F1B5
:103B0000FF3F02D0B6F1FF3F02D10220BDE8F081B5
:103B10001D4800681D49884201D1012000E00020B5
:103B2000012800D1F2E715484568406813498968C3
:103B3000471802E0287804446D1CBD42FAD30F48B0
:103B4000C268234612A1072000F002FF0B48C0689C
:103B5000021912A1072000F0FBFE0848C0682044AB
:103B600008B90020D2E70320D0E700000082001A45
:103B700000000020010000200080001A3C0400200A
:103B800052756E0D0A000000F07F00107856341256
:103B9000463A3078253038580D0A433A3078253087
:103BA00038580D0A0000000001210120094A12685E
:103BB0000AB100200CE0084A12680AB1002007E0B0
:103BC000064A1368064A1268521E934200D1022028
:103BD0007047000030B100200404002044B10020F0
:103BE000F00300200CB50C490A480A1D0968009131
:103BF00011680191094A0099914209D10199A1F1F5
:103C00008852113A04D1016841F4700100910160B9
:103C10000CBD000088ED00E040EF00E02100111035
:103C20004FF08252D2F80021104710B500F030FA60
:103C3000FFF7D2FD002010BD2DE9F04105460E46EC
:103C40001C4807681C480068001D00F0B5FE50B90C
:103C50001948006890F82C1001208840174909681D
:103C6000814316480160681C38B936B112480168B2
:103C7000091D134800F006FF1AE07C190E48006881
:103C80004460BC4207D20C480168091D0D48006819
:103C900000F0DEFE0CE008480168091D0A480068D3
:103CA00000F0D6FE09480068844201D2074804604B
:103CB000BDE8F081F4030020E4030020F8030020B5
:103CC00044B10020EC030020E80300201004002091
:103CD00010B5044600F0E2FE24480068401C234969
:103CE00008602348006840B921480460084600681D
:103CF00001280DD100F068F90AE01E48006838B9C3
:103D00001B480068C06AE16A884201D8184804600C
:103D100019480068401C1849086008460068A064FB
:103D200094F82C100120884014490968084313496D
:103D30000860E16A01EB8101114A02EB8100211D5B
:103D400000F0A0FE00F0BCFE0A48006868B1084818
:103D50000068C06AE16A884207D24FF08050094982
:103D60000860BFF34F8FBFF36F8F10BDF0030020CB
:103D7000E4030020FC0300200C040020F8030020D2
:103D8000A4B0002004ED00E0704770B504460D4675
:103D9000206C70B1216CE0680144E160D4E902104C
:103DA000884201D32168E1602846226CE168FCF773
:103DB000A8FB70BD2DE9F04104460F4615464FF0B3
:103DC0000008A66B206C48B9206800282CD1A06898
:103DD00001F0B8FC80460020A06025E07DB939469E
:103DE000226C6068FCF78DFB216C606808446060A1
:103DF000D4E90101884217D32068606014E0394695
:103E0000226CE068FCF77DFB216CE068411AE16000
:103E10002168E068884203D2216CA068411AE16001
:103E2000022D01D106B1761E701CA0634046BDE88C
:103E3000F08101464A6A22B10A6B1268C2F105009C
:103E400000E0002070470000002101220C4B1B689D
:103E5000012B00D901210B4A1268D26A0AB1002055
:103E60000DE0094A1268012A01D9002007E009B1D2
:103E7000002004E0054A1268054B1B68D01A704701
:103E8000F8030020E4030020A4B000201004002068
:103E9000F403002000BFFFF777FF104800680128F7
:103EA00007D94FF080500E490860BFF34F8FBFF322
:103EB0006F8F00F0AFFDFFF7C7FF0446022C0BD356
:103EC00001F050F8FFF7C0FF0446022C02D3204651
:103ED00000F03AFE01F01EFDDDE70000A4B0002076
:103EE00004ED00E010B5044654B10020A06020604D
:103EF0000021E16000231A461946204601F008F926
:103F000010BD2DE9F04106460D4617469846069C21
:103F10000DB9246000E02760E66325640121204696
:103F200001F0B6F884F84C80BDE8F0812DE9F05F2F
:103F300081460E4690469A460A9F0C9C4FEA88019D
:103F4000A522206BFCF722FBA8F10100216B01EBFD
:103F5000800B2BF0070B86B1002507E0715D04F1A3
:103F600034004155705D00B902E06D1C142DF5D38D
:103F700000BF00214720015502E0002084F83400F2
:103F8000052F00D30427E762276500206065201D08
:103F900000F05BFD04F1180000F057FD2461C7F14B
:103FA0000500A06164620020A06584F85C005246B0
:103FB0004946584600F0CCF820600B9808B10B98A1
:103FC0000460BDE8F09F000010B5002407E004EB9A
:103FD00084010D4A02EB810000F02AFD641C052CCF
:103FE000F5D30A4800F024FD094800F021FD0948F6
:103FF00000F01EFD084800F01BFD0448074908605A
:1040000003480749086010BDA4B0002008B1002093
:104010001CB1002030B1002044B10020E803002092
:10402000EC03002070B5054600F038FDA86B08B918
:10403000012400E0002400F043FD204670BD70B56F
:10404000054600F02BFDA86BE96B884201D10124E5
:1040500000E0002400F034FD204670BD0A490968E4
:10406000096809B9012100E0002121B14FF0FF31B9
:10407000064A116006E004490968C968C868034A2D
:104080004168116070470000E80300201004002020
:1040900010B572B6FFF74EFA10BD00BF282080F3AE
:1040A0001188BFF34F8FBFF36F8F00BF00BFFEE7D4
:1040B00070B5044600F0F2FC94F9455010E0606AD7
:1040C00008B9012000E0002038B904F1240001F013
:1040D000DFFB18B100F024FE00E003E0681E45B2EB
:1040E000002DECDC00BFFF2084F8450000F0E8FC68
:1040F00000F0D4FC94F9445010E0206908B9012084
:1041000000E0002048B904F1100001F0C1FB08B143
:1041100000F006FE681E45B200E001E0002DECDC78
:1041200000BFFF2084F8440000F0CAFC70BD00000E
:104130000648006830B10549096801F15400496D2D
:10414000491C01600148006870470000E40300203A
:10415000001F4FF080730360001F21F00103036014
:10416000001F054B036014380260001F6FF002034C
:1041700003602038704700009B40001A2DE9F05F73
:104180000446884616461F464FF000090025AA46F9
:10419000AB46207807F0010140EAC11B607840EA95
:1041A0000B2A637822782BA1042000F0D1FB00BFFA
:1041B0002CE005EB4500294931F81000504523D18A
:1041C00000BF05EB450001EB4000D0F8020030B91C
:1041D0004FF4D27322A22CA1002000F0B9FB00BF43
:1041E00005EB45001D4901EB4000D0F8020058B135
:1041F00005EB450001EB4000D0F802303246414665
:1042000020469847814603E0681C85B20D2DD0D327
:1042100000BF0D2D11D3637822780EA1042000F089
:1042200097FB00BF40F2B3130DA21CA1002000F0C9
:104230008FFB00BF0420BDE8F09FB9F1010F06D14C
:104240003088002801DD0520F5E70120F3E706208E
:10425000F1E7000025582025580A00002E6C001AAE
:104260002E2E5C2E2E5C7372635C626F6F74636FB4
:1042700064655C7574696C5C7574696C434C494326
:104280006D642E63000000000D0A415353455254E3
:104290003A2025733A2025640D0A00000D0A415387
:1042A000534552545F414C574159533A2025733A74
:1042B0002025640D0A00000070B506460C46154620
:1042C0002046FFF7E7F904202880012070BD70B573
:1042D00005460E461446A81CFFF7E2F90020208090
:1042E000012070BD0346002010800120704770B58A
:1042F00004460E461546A11DA01CFFF79BF90020A1
:104300002880012070BD70B505460E461446A81CD5
:10431000FFF7DAF900202080012070BD70B5064655
:104320000C4615462046FFF707FA04202880012096
:1043300070BD70B505460E461446A81CFFF778FA06
:1043400000202080012070BD70B505460E46144641
:10435000A81CFFF7C1F900202080012070BD70B5B6
:1043600005460E461446FFF7F1F900202080012093
:1043700070BD70B504460E461546A11DA01CFFF782
:10438000D9FA00202880012070BD70B505460E4680
:1043900014460120FFF768FB00202080012070BD3B
:1043A00010B504460B4601201870108010BD0000A7
:1043B0002DE9F04107460C461646254607A1042084
:1043C00000F0C6FA00202870022068700020A87053
:1043D000E870042030800120BDE8F08153797374C7
:1043E000656D5F56657273696F6E5F4765740D0A20
:1043F0000000000038B5044601F010F900904FF4B9
:104400007A7060434FF47A71B0FBF1F52946684643
:1044100000F040FC38BD000002E0024800F016F950
:10442000FBE70000F83B00202DE9F04104460D4673
:1044300016461F46552020706070A570E670032157
:1044400021710121A01CA4F80710E772204600F09A
:1044500002F8BDE8F08110B50022002100BF83788A
:104460001944C378194403791944B0F8053001EBB5
:10447000132143791944B0F8073001EB1321C379B4
:10448000194400BF06E000F10B039B5C0B4499B29A
:10449000531C9AB2B0F807309342F4DCCB435B1C58
:1044A0009CB2831CA0F8094010BD70B5ADF5866DB7
:1044B00004460126072540F22D4221466846FCF7B6
:1044C00020F8207900B9002633460DF10702111DAE
:1044D00004F10B00FFF752FE0546A1788DF803109A
:1044E000E0788DF80200052D11D1D4F8320470B1B6
:1044F00002218DF804106846FFF7ADFFBDF80710E4
:104500000B3188B2D4F832246946904710E0A27883
:10451000E1782B462046FFF787FFD4F8320438B104
:10452000B4F807100B3188B2D4F8322421469047F2
:104530000DF5866D70BD70B504460D462A462146C0
:104540000120FEF7DBF870BD7CB504460D4607A1DF
:1045500003C9CDE900016A4608210120FEF712F9DE
:104560002A4621460120FEF70DF97CBDFFFFFFFF23
:10457000FFFFFFFF0EB5104800F0C6F90F480E49C7
:10458000C1F832040E48C1F836040E480E49022222
:104590000023CDE90021029012020CA1104801F085
:1045A00019F8104908600846006818B90EA10020E3
:1045B00000F0CEF90EBD0000F83B00204945001A7E
:1045C0003745001A3440002094400020486F73742F
:1045D0005F48616E646C65725F5461736B000000CC
:1045E0001944001AA8030020486F73742048616EB4
:1045F000646C6572205461736B20437265617465ED
:10460000204661696C0D0A0070B5044600252646F7
:104610000BA1052000F09CF900BF06E0725D09A126
:10462000052000F095F9681C85B2B4F807000B303E
:10463000A842F3D202A1052000F08AF970BD000063
:104640000D0A0000307825303258200070B504463D
:1046500000254FF47A71204600F06EF80546072DCC
:1046600051D2DFE805F0040506070E243A0000BF2A
:1046700000BF49E02046FFF718FF204600F044F94C
:1046800042E022A1052000F063F9A278E17802233C
:104690002046FFF7C9FEB4F807100B3188B2D4F8F2
:1046A000322421469047204600F02EF92CE01BA131
:1046B000052000F04DF9A278E17803232046FFF7AA
:1046C000B3FEB4F807100B3188B2D4F83224214677
:1046D0009047204600F018F916E013A1052000F0DD
:1046E00037F9A278E17802232046FFF79DFEB4F85F
:1046F00007100B3188B2D4F8322421469047204667
:1047000000F002F900E000BF00BF70BD4241445F0D
:104710005041434B45540D0A0000000054494D459B
:104720004F55540D0A0000004F5554204F46204D60
:10473000454D4F52590D0A00F8B504460E4600206B
:104740000090D4F8360420B9002000F0A5FB072023
:10475000F8BDD4F83624694601209047012871D16C
:1047600094F82D0420B1012817D002286BD181E0E4
:104770009DF800006070207855280BD1607855288E
:1047800008D1012084F82D040020A4F82E04A4F8F8
:10479000300401E060782070A3E0A51C9DF80010B3
:1047A000B4F82E24501CA4F82E04A954B4F82E04F6
:1047B00009285ED1B4F8070040F22241884250D85F
:1047C0000020A4F82E04022084F82D04B4F830044C
:1047D000A1780844A4F83004B4F83014E078084410
:1047E000A4F83004B4F8301420790844A4F8300454
:1047F000B4F83014B4F8050001EB1020A4F830042C
:10480000B4F8301460790844A4F83004B4F83014D3
:10481000B4F8070001EB1020A4F83004B4F8301409
:10482000E0790844A4F83004B4F8070008BBB4F8F1
:104830000900B4F83014084480B228B9032084F881
:104840002D040BE04EE049E028A1052000F080F89F
:104850002046FFF7D9FE042084F82D0494F82D0497
:1048600076E725A1052000F073F8042084F82D04D4
:104870006EE736E004F22E4460889DF8001008448C
:1048800060809DF800102288501C2080A4F22E44E5
:1048900004F10B008154B4F80700B4F82E148842D8
:1048A0001BD1B4F80900B4F83014084480B238B908
:1048B000032084F82D0413A1052000F049F809E035
:1048C0000AA1052000F044F82046FFF79DFE0420D1
:1048D00084F82D0494F82D043AE702E094F82D04AE
:1048E00036E700BF94F82D0432E70000435243201E
:1048F0004552524F520D0A004F5645522053495AC5
:10490000450D0A000D0A000010B5044640F22D4185
:104910002046FBF743FE002084F82D04A4F82E0463
:10492000A4F8300410BD000010B50024054800684C
:104930002043044908600449012000F07FFB03493B
:10494000086010BDDC03002094480020E003002034
:104950000FB438B505461648006830B30021144836
:10496000006800F071FD01281FD101021148FBF71A
:1049700037FE06A800904FF480710E48009B059A00
:10498000FBF786FD0B48FBF79DFD84B20023094A27
:1049900021460320FEF7E0F80020009000231A468D
:1049A00019460348006800F0B3FB38BC5DF814FBFF
:1049B000E0030020E448002001460A69D1E9013003
:1049C0009860D1E9010358605068884201D1886835
:1049D0005060002008611068401E10601068704729
:1049E00070B5044600F05AF8A56B00F069F8284647
:1049F00070BD01460A46906B70470000034B036090
:104A0000034B0B608023136070470000E44D0020CF
:104A1000444E002030BF704700BFA02080F31188B3
:104A2000BFF34F8FBFF36F8F00BF02BE00BFFEE723
:104A300000F1080141604FF0FF31816000F1080191
:104A4000C160016100210160704700210161704770
:104A500010B502460B685C1C0CB9106907E002F146
:104A6000080000E04068446824689C42FAD9446821
:104A70004C604C68A160886041600A611468641CE5
:104A8000146010BD42684A6093688B6093685960F7
:104A90009160086103685B1C0360704700BF2820B9
:104AA00080F31188BFF34F8FBFF36F8F00BF0348B0
:104AB0000068401C01490860704700001C04002089
:104AC00006480068401E054908600846006820B98D
:104AD000002080F3118800BF00BF70471C04002035
:104AE000154800684FF47A71B0FBF1F01349086083
:104AF000084600686FF07F41B1FBF0F01049086094
:104B00000D480068B0FBF0F02D21B1FBF0F00D492D
:104B1000086000204FF0E0210861886106480068C5
:104B20004FF47A71B0FBF1F0401E4FF0E021486184
:104B300007200861704700002C040020200400209A
:104B400024040020280400202DE9F04104464E48AA
:104B50000068844201D94C4804684FF0E0200069A5
:104B600020F001004FF0E021086108468169601ED5
:104B7000464A126802FB001545480068854202D982
:104B8000434800682D1A72B6BFF34F8FBFF36F8F83
:104B9000FFF70AF880B94FF0E02080694FF0E0217C
:104BA00048610846006940F0010008613748006824
:104BB000401E486162B665E04FF0E020456100208C
:104BC0004FF0E02188610846006940F0010008616B
:104BD000A046B8F1000F04D0BFF34F8F30BFBFF332
:104BE0006F8F62B6BFF34F8FBFF36F8F72B6BFF395
:104BF0004F8FBFF36F8F06204FF0E021086108460A
:104C0000006900F48030B8B120490968491E4FF0AE
:104C1000E0229269AA1A881A1D490968884203D3BA
:104C20001A490968884202D918490968481E4FF094
:104C3000E0214861661E12E01448006860434FF0AE
:104C4000E0218969471A11480068B7FBF0F6701C2B
:104C50000E4909684843C01B4FF0E021486100201D
:104C60004FF0E02188610846006940F001000861CA
:104C7000304600F009F905480068401E4FF0E02179
:104C8000486162B6BDE8F0812404002020040020C1
:104C9000280400202DE9F047044688464FF000091B
:104CA00000F060F916480668206800EB08052068E7
:104CB000B04207D92068A8420BD9B54209D94FF0B4
:104CC000010906E02068A84201D8B54201D94FF099
:104CD00001092560B9F1000F03D0A81B0021FEF7E0
:104CE000ABFF00F017FE07463FB94FF08050054973
:104CF0000860BFF34F8FBFF36F8FBDE8F0870000F0
:104D0000F403002004ED00E0034909680160034951
:104D1000096841607047000008040020F403002087
:104D200001200149086070470404002070B5054661
:104D30000C460548016818312846FFF789FE012115
:104D40002046FEF779FF70BDE40300202DE9F0470F
:104D500006460F4634464FF00109002E47D0206D1D
:104D6000B84201D23D4600E0256DE06AA8423ED03F
:104D7000606D01283BD1D4F82C80E562A06900F079
:104D8000004010B9C5F10500A06108EB8801194A7F
:104D900002EB81016069884201D1012000E000201E
:104DA00028B3201DFFF708FE78B9E06A00EB800009
:104DB000104951F8200040B994F82C100120884087
:104DC0000D49096881430C48016094F82C100120BA
:104DD000884009490968084307490860E16A01EB0E
:104DE0008101044A02EB8100211DFFF74BFEBDE863
:104DF000F0870000A4B00020F803002010B586B0B2
:104E000000200590049003AA04A905A8FFF7F6FD69
:104E10000022DDE904101346CDE90021029013A120
:104E20001448039A00F0D6FB13490860084600684E
:104E300008B1012400E00024012C14D100BF282077
:104E400080F31188BFF34F8FBFF36F8F00BF4FF018
:104E5000FF300A490860012009490860002009491B
:104E6000086000F0C7F806B010BD000049444C458A
:104E700000000000953E001A1404002010040020D9
:104E8000FC030020F4030020024909680144014AA0
:104E900011607047F403002070B50546FFF7FEFD72
:104EA00015B92948006800E028460446201DFFF790
:104EB00083FD78B9E06A00EB8000244951F82000B6
:104EC00040B994F82C100120884021490968814399
:104ED0001F480160A06A18B104F11800FFF76CFDCB
:104EE000211D1C48FFF7CEFD94F85C00012802D17B
:104EF000002084F85C00FFF7E3FD1748006828B144
:104F0000FFF7CCFDFFF7AAF8FFF7DAFD0E480068BF
:104F1000844217D11048006840B14FF080500F49CB
:104F20000860BFF34F8FBFF36F8F0BE00948006835
:104F30000B490968884203D100200349086001E059
:104F400000F018F870BD0000E4030020A4B00020B9
:104F5000F803002044B10020FC03002004ED00E031
:104F6000F003002002480068401C014908607047B7
:104F70001804002010B51A48006818B1012019491A
:104F800008602BE000201749086017480068006897
:104F900015490968096B884205D8134801683431FE
:104FA0000068FFF739FD11480068B0FA80F0C0F1E1
:104FB0001F0101EB81020E4B03EB82004268526835
:104FC000426000F108024368934202D1426852688D
:104FD00042604268D268044B1A6000BF10BD0000F6
:104FE0001804002004040020E4030020F80300203B
:104FF000A4B0002010B50E48006840F0FC700C49C9
:1050000008600846006840F078400860FFF768FDD7
:10501000002008490860FBF767F90748006840F07E
:10502000404005490860FBF74BF9002010BD000027
:1050300020ED00E01C04002034EF00E02DE9F843EF
:1050400004460D4601274FF000082B46002211466A
:105050000120009400F007F806463046FEF742FFB4
:105060003046BDE8F8832DE9F84306460F469046E2
:105070001C46DDF82090254635B14B464246394660
:1050800030460095FEF73DFF2846BDE8F883000056
:1050900070B505460E462C46FFF700FDD4E90F1209
:1050A000206801FB0200A0600020A063206860600F
:1050B000E06B401E226C216800FB0211E160FF20C2
:1050C00084F8440084F845009EB9206908B901209D
:1050D00000E00020A8B904F1100000F0D9FB80B175
:1050E0004FF0805009490860BFF34F8FBFF36F8FB7
:1050F00007E004F11000FFF79BFC04F12400FFF728
:1051000097FCFFF7DDFC012070BD000004ED00E01E
:105110002DE9FF4383B0074688461D464FF000093E
:105120003C4600BFFFF7BAFCA06BE16B884201D39D
:10513000022D28D12A4641462046FEF73BFE064670
:10514000606A08B9012000E0002068B904F1240079
:1051500000F09EFB88B14FF0805032490860BFF3E9
:105160004F8FBFF36F8F08E03EB14FF080502D4955
:105170000860BFF34F8FBFF36F8FFFF7A1FC0120D3
:1051800007B0BDE8F083059818B9FFF799FC002037
:10519000F6E7B9F1000F04D101A8FFF7B5FD4FF014
:1051A0000109FFF78DFCFFF7DDFEFFF777FC94F9AF
:1051B0004400401C10B9002084F8440094F94500D4
:1051C000401C10B9002084F84500FFF779FC05A9C0
:1051D00001A800F0D1F9F0B92046FEF730FFA0B1E8
:1051E00004F110000599FFF7A1FD2046FEF760FFCE
:1051F00000F090FB002895D14FF0805009490860DD
:10520000BFF34F8FBFF36F8F8CE72046FEF750FF41
:1052100000F080FB86E72046FEF74AFF00F07AFBAD
:105220000020ADE704ED00E02DE9F05F05468A4679
:1052300016461F462C4600BF2821EFF3118081F34C
:105240001188BFF34F8FBFF36F8F00BF8146A06BF4
:10525000E16B884201D3022F20D194F945B03A4640
:1052600051462046FEF7A6FD0BF1010070B9606AB9
:1052700008B9012000E0002068B904F1240000F022
:1052800007FB40B13EB10120306004E00BF10100AA
:1052900040B284F845004FF0010801E04FF00008EB
:1052A00000BF89F3118800BF4046BDE8F09F01466A
:1052B0000A46936B0BB9012000E000207047000004
:1052C0002DE9F74183B005460F464FF000082C4604
:1052D00000BFFFF7E3FBA66BF6B139462046FEF7A9
:1052E00054FD701EA063206908B9012000E0002071
:1052F00060B904F1100000F0CBFA38B14FF08050E3
:105300002F490860BFF34F8FBFF36F8FFFF7D8FBB4
:10531000012006B0BDE8F081059818B9FFF7D0FB71
:105320000020F6E7B8F1000F04D101A8FFF7ECFC6C
:105330004FF00108FFF7C4FBFFF714FEFFF7AEFBC9
:1053400094F94400401C10B9002084F8440094F9FA
:105350004500401C10B9002084F84500FFF7B0FB61
:1053600005A901A800F008F9F0B92046FEF75AFE99
:10537000A0B104F124000599FFF7D8FC2046FEF700
:1053800097FE00F0C7FA0028A3D14FF080500C49D7
:105390000860BFF34F8FBFF36F8F9AE72046FEF789
:1053A00087FE00F0B7FA94E72046FEF781FE00F092
:1053B000B1FA2046FEF736FE00288AD00020A8E782
:1053C00004ED00E02DE9F05F05468A4616462C46BE
:1053D00000BF2821EFF3118081F31188BFF34F8FB5
:1053E000BFF36F8F00BF8046D4F83890B9F1000F3B
:1053F00021D094F944B051462046FEF7C6FCA9F1ED
:105400000100A0630BF1010070B9206908B9012007
:1054100000E0002068B904F1100000F039FA40B152
:105420003EB10120306004E00BF1010040B284F88D
:105430004400012700E0002700BF88F3118800BF67
:105440003846BDE8F09F00002DE9F34182B00546E3
:1054500000272C46B84600BFFFF720FBA66BFEB125
:10546000701EA063206810B9FEF762FEA06020697C
:1054700008B9012000E0002060B904F1100000F03C
:1054800007FA38B14FF080503A490860BFF34F8FA8
:10549000BFF36F8FFFF714FB012004B0BDE8F0816C
:1054A000039818B9FFF70CFB0020F6E71FB9684610
:1054B000FFF72AFC0127FFF703FBFFF753FDFFF778
:1054C000EDFA94F94400401C10B9002084F844001F
:1054D00094F94500401C10B9002084F84500FFF7FE
:1054E000EFFA03A9684600F047F840BB2046FEF7F4
:1054F00099FDF0B1206838B9FFF7D0FAA06800F044
:1055000063F98046FFF7DCFA04F124000399FFF702
:105510000DFC2046FEF7CCFD00F0FCF900289BD1E5
:105520004FF0805013490860BFF34F8FBFF36F8F68
:1055300092E72046FEF7BCFD00F0ECF98CE7204630
:10554000FEF7B6FD00F0E6F92046FEF76BFD0028F9
:1055500082D0B8F1000F0BD0FFF7A0FA2046FEF77B
:1055600068FC06463146A068FFF7F0FBFFF7A8FA93
:10557000002092E704ED00E070B506460C46FFF708
:105580008DFA124802687068131A2068401C08B926
:10559000002517E00E4930680968884204D0706819
:1055A000904201D801250DE02068984207D9206873
:1055B000C01A20603046FFF7A7FB002502E000205C
:1055C00020600125FFF77CFA284670BDF403002017
:1055D000080400202DE9F04F85B007468846914623
:1055E0009A46DDE90EB6109C94B18EB125462E6325
:1055F000002004A953464A46CDE900B1CDE9025046
:1056000041463846FEF792FC2846FEF761FB01E072
:1056100000200490049805B0BDE8F08F01490868A7
:1056200070470000F40300202DE9F04100273A48BC
:105630000068002863D139480068451C3748056078
:105640008DB93748D0F80080364800683449086082
:105650003448C0F8008034480068401C3249086073
:10566000FEF7FCFC00BF3148006885423BD300BF19
:105670002B480068006808B9012000E0002020B134
:105680004FF0FF30294908602CE025480068C068C9
:10569000C4686668B54202D22448066022E0201D34
:1056A000FFF78AF9A06A18B104F11800FFF784F92E
:1056B00094F82C10012088401D49096808431C49B2
:1056C0000860E16A01EB81011A4A02EB8100211DA9
:1056D000FFF7D8F91849E06A0968C96A8842C7D350
:1056E0000127C5E700BF14480068C06A00EB8000CE
:1056F000104951F82000012800D9012704E00F4883
:105700000068401C0D4908600D48006800B1012781
:105710003846BDE8F081000018040020F4030020A2
:10572000E8030020EC0300200804002010040020FF
:10573000F8030020A4B00020E403002000040020AF
:105740000404002070B505462C460026ADB3606DFC
:10575000401E6065216DE06A88422ED0606D60BB9E
:10576000201DFFF729F978B9E06A00EB80001449A1
:1057700051F8200040B994F82C10012088401149BC
:10578000096881430F480160206DE062E06AC0F162
:105790000500A06194F82C1001208840094909688F
:1057A000084308490860E16A01EB8101044A02EB01
:1057B0008100211DFFF766F90126304670BD00000B
:1057C000A4B00020F803002070B505462C46002642
:1057D000002D54D02B49E06A0968C96A884247D233
:1057E000A06900F0004028B926480068C06AC0F1EE
:1057F0000500A061E16A01EB8101234A02EB81010E
:105800006069884201D1012000E0002050B3201DD2
:10581000FFF7D2F878B9E06A00EB80001A4951F836
:10582000200040B994F82C100120884017490968DD
:1058300081431648016013480068C06AE06294F82A
:105840002C10012088401149096808430F4908605D
:10585000E16A01EB81010C4A02EB8100211DFFF797
:1058600011F903E007480068C06AE062012606E01B
:105870000449206D0968C96A884200D20126304671
:1058800070BD0000E4030020A4B00020F803002055
:1058900070B50646F068C46804F11800FFF78CF88C
:1058A00016480068B8B9201DFFF786F894F82C1048
:1058B0000120884012490968084311490860E16ADB
:1058C00001EB81010F4A02EB8100211DFFF7DAF89D
:1058D000FEF7C4FB04E004F118010B48FFF7D2F80F
:1058E0000A49E06A0968C96A884204D90125012089
:1058F0000749086000E00025284670BD1804002014
:10590000F8030020A4B0002030B10020E403002000
:105910000404002070B500240026FFF7BFF82E48CD
:105920000068401E2C4908600846006800284FD1D6
:105930002A48006800284BD024E02948C068C46881
:1059400004F11800FFF738F8201DFFF735F894F838
:105950002C10012088402349096808432149086028
:10596000E16A01EB8101204A02EB8100211DFFF772
:1059700089F81E49E06A0968C96A884202D3012091
:105980001B4908601648006808B9012000E00020A3
:105990000028D2D00CB1FEF761FB1648056865B14E
:1059A00000BFFFF741FE10B10120114908606D1ED4
:1059B000002DF6D100200F4908600D48006838B16D
:1059C000012630070C490860BFF34F8FBFF36F8F7C
:1059D000FFF776F8304670BD18040020F003002071
:1059E00030B10020F8030020A4B00020E403002020
:1059F000040400200004002004ED00E010B500299C
:105A00000AD00878002807D005487844FBF768FEDC
:105A1000002801D0002010BD0248784410BD0000CD
:105A20005A1400005214000010B500290AD008785A
:105A3000002807D005487844FBF752FE002801D023
:105A4000002010BD0248784410BD00004A14000038
:105A5000421400004FF04070E1EE100A7047FBF76F
:105A60004CBAFBF781BB000000000000001BB70030
:105A700000010100090101000A0101000201010009
:105A80000E0101000F0101001001010011010100D0
:105A900012010100130101000000000000010001DB
:105AA0000100000401010008010200090103000ACD
:105AB0000104000B010501080106010901070100AD
:105AC0000108010101090102010A0103010B01049E
:105AD000010C0105010D0106010E0107010F000275
